:02000000802E50
:03000B000200539D
:1000300090015675A0007530007531007532007F53
:10004000147830758901758C3C758AB075A882D298
:100050008C80FE758C3C758AB01200CCDF297F1431
:10006000E5302401D4F530B4601E753000E531244C
:1000700001D4F531B46011753100E5322401F53257
:10008000B424057532003232E6540F93F590D2A0B5
:10009000C2A0E654F0C493F590D2A1C2A108E654E0
:1000A0000F93F590D2A2C2A2E654F0C493F590D279
:1000B000A3C2A308E6540F93F590D2A4C2A4E654B9
:1000C000F0C493F590D2A5C2A578303230B00122A9
:1000D000D2B0E6540F93F590D2A0C2A0E654F0C47B
:1000E00093F590D2A1C2A112013E740A93F590D269
:1000F000A0D2A1C2A0C2A112013E80D6D2B0E654C5
:100100000F93F590D2A0C2A0E654F0C493F590D21C
:10011000A1C2A108E6540F93F590D2A2C2A2E65460
:10012000F0C493F590D2A3C2A312014A740A93F5C6
:1001300090D2A2D2A3C2A2C2A312014A80D67A64EC
:090140007BFA30B0B7DBFBDAF703
:10014900227A647BFA30B0EDDBFBDAF722C0F9A43E
:08015900B0999282F88090FF3A
:00000001FF
